{
  "contractName": "HoneyTokenSale",
  "abi": [
    {
      "constant": true,
      "inputs": [],
      "name": "airdroplist",
      "outputs": [
        {
          "name": "",
          "type": "address"
        }
      ],
      "payable": false,
      "stateMutability": "view",
      "type": "function"
    },
    {
      "constant": true,
      "inputs": [],
      "name": "REWARD_TOKEN",
      "outputs": [
        {
          "name": "",
          "type": "uint256"
        }
      ],
      "payable": false,
      "stateMutability": "view",
      "type": "function"
    },
    {
      "constant": true,
      "inputs": [],
      "name": "token",
      "outputs": [
        {
          "name": "",
          "type": "address"
        }
      ],
      "payable": false,
      "stateMutability": "view",
      "type": "function"
    },
    {
      "inputs": [
        {
          "name": "_token",
          "type": "address"
        },
        {
          "name": "_airdroplist",
          "type": "address"
        }
      ],
      "payable": false,
      "stateMutability": "nonpayable",
      "type": "constructor"
    },
    {
      "payable": true,
      "stateMutability": "payable",
      "type": "fallback"
    }
  ],
  "bytecode": "0x6080604052601460025534801561001557600080fd5b506040516040806104c48339810180604052810190808051906020019092919080519060200190929190505050600073ffffffffffffffffffffffffffffffffffffffff168273ffffffffffffffffffffffffffffffffffffffff161415151561007e57600080fd5b816000806101000a81548173ffffffffffffffffffffffffffffffffffffffff021916908373ffffffffffffffffffffffffffffffffffffffff16021790555080600160006101000a81548173ffffffffffffffffffffffffffffffffffffffff021916908373ffffffffffffffffffffffffffffffffffffffff16021790555050506103b4806101106000396000f300608060405260043610610057576000357c0100000000000000000000000000000000000000000000000000000000900463ffffffff16806371b679111461025e57806399248ea7146102b5578063fc0c546a146102e0575b600160009054906101000a900473ffffffffffffffffffffffffffffffffffffffff1673ffffffffffffffffffffffffffffffffffffffff1663c3c5a547336040518263ffffffff167c0100000000000000000000000000000000000000000000000000000000028152600401808273ffffffffffffffffffffffffffffffffffffffff1673ffffffffffffffffffffffffffffffffffffffff168152602001915050602060405180830381600087803b15801561011457600080fd5b505af1158015610128573d6000803e3d6000fd5b505050506040513d602081101561013e57600080fd5b8101908080519060200190929190505050151561015a57600080fd5b6000809054906101000a900473ffffffffffffffffffffffffffffffffffffffff1673ffffffffffffffffffffffffffffffffffffffff1663a9059cbb336002546040518363ffffffff167c0100000000000000000000000000000000000000000000000000000000028152600401808373ffffffffffffffffffffffffffffffffffffffff1673ffffffffffffffffffffffffffffffffffffffff16815260200182815260200192505050602060405180830381600087803b15801561022057600080fd5b505af1158015610234573d6000803e3d6000fd5b505050506040513d602081101561024a57600080fd5b810190808051906020019092919050505050005b34801561026a57600080fd5b50610273610337565b604051808273ffffffffffffffffffffffffffffffffffffffff1673ffffffffffffffffffffffffffffffffffffffff16815260200191505060405180910390f35b3480156102c157600080fd5b506102ca61035d565b6040518082815260200191505060405180910390f35b3480156102ec57600080fd5b506102f5610363565b604051808273ffffffffffffffffffffffffffffffffffffffff1673ffffffffffffffffffffffffffffffffffffffff16815260200191505060405180910390f35b600160009054906101000a900473ffffffffffffffffffffffffffffffffffffffff1681565b60025481565b6000809054906101000a900473ffffffffffffffffffffffffffffffffffffffff16815600a165627a7a72305820a008f40562fdca00c7c6afd69ae43d2c9914b13bbeaa65279b01fb2a65cc51cb0029",
  "source": "pragma solidity ^0.4.15;\n\nimport './HoneyToken.sol';\nimport './HoneyTokenAirdrop.sol';\nimport 'openzeppelin-solidity/contracts/math/SafeMath.sol';\n\ncontract HoneyTokenSale {\n    HoneyToken public token;\n    HoneyTokenAirdrop public airdroplist;\n    uint public REWARD_TOKEN = 20;\n\n    function HoneyTokenSale(HoneyToken _token, HoneyTokenAirdrop _airdroplist) public {\n        require(_token != address(0));\n        token = _token;\n        airdroplist = _airdroplist;\n    }\n\n    function() external payable {        \n        require(airdroplist.isRegistered(msg.sender));\n\n        token.transfer(msg.sender, REWARD_TOKEN);\n    }\n}",
  "sourcePath": "/Users/willpark/Desktop/hackathon/nabieffect/nabi-hack/contracts/HoneyTokenSale.sol",
  "compiler": {
    "name": "solc",
    "version": "0.4.24+commit.e67f0147.Emscripten.clang"
  },
  "schemaVersion": "2.0.1",
  "updatedAt": "2018-08-10T16:13:55.366Z"
}