{
  "contractName": "HoneyTokenAirdrop",
  "abi": [
    {
      "inputs": [],
      "payable": false,
      "stateMutability": "nonpayable",
      "type": "constructor"
    },
    {
      "constant": false,
      "inputs": [],
      "name": "register",
      "outputs": [],
      "payable": false,
      "stateMutability": "nonpayable",
      "type": "function"
    },
    {
      "constant": false,
      "inputs": [],
      "name": "unregister",
      "outputs": [],
      "payable": false,
      "stateMutability": "nonpayable",
      "type": "function"
    },
    {
      "constant": true,
      "inputs": [
        {
          "name": "adAddress",
          "type": "address"
        }
      ],
      "name": "isRegistered",
      "outputs": [
        {
          "name": "registered",
          "type": "bool"
        }
      ],
      "payable": false,
      "stateMutability": "view",
      "type": "function"
    }
  ],
  "bytecode": "0x608060405234801561001057600080fd5b50336000806101000a81548173ffffffffffffffffffffffffffffffffffffffff021916908373ffffffffffffffffffffffffffffffffffffffff16021790555061029e806100606000396000f300608060405260043610610057576000357c0100000000000000000000000000000000000000000000000000000000900463ffffffff1680631aa3a0081461005c578063c3c5a54714610073578063e79a198f146100ce575b600080fd5b34801561006857600080fd5b506100716100e5565b005b34801561007f57600080fd5b506100b4600480360381019080803573ffffffffffffffffffffffffffffffffffffffff16906020019092919050505061016a565b604051808215151515815260200191505060405180910390f35b3480156100da57600080fd5b506100e36101ec565b005b600180600033604051808273ffffffffffffffffffffffffffffffffffffffff1673ffffffffffffffffffffffffffffffffffffffff166c0100000000000000000000000002815260140191505060405180910390206000191660001916815260200190815260200160002060006101000a81548160ff021916908315150217905550565b60006001600083604051808273ffffffffffffffffffffffffffffffffffffffff1673ffffffffffffffffffffffffffffffffffffffff166c0100000000000000000000000002815260140191505060405180910390206000191660001916815260200190815260200160002060009054906101000a900460ff169050919050565b60006001600033604051808273ffffffffffffffffffffffffffffffffffffffff1673ffffffffffffffffffffffffffffffffffffffff166c0100000000000000000000000002815260140191505060405180910390206000191660001916815260200190815260200160002060006101000a81548160ff0219169083151502179055505600a165627a7a72305820406a089145c2d1f09a42ec97f0d01c1f1240c8fc7f27df7e6811bb2b6c27a4260029",
  "source": "pragma solidity ^0.4.15;\n\ncontract HoneyTokenAirdrop {\n    address owner;\n\n    mapping(bytes32 => bool) airdroplist;\n\n    function HoneyTokenAirdrop() public {\n        owner = msg.sender;\n    }\n\n    function register() external {\n        airdroplist[keccak256(msg.sender)] = true;\n    }\n\n    function unregister() external {\n        airdroplist[keccak256(msg.sender)] = false;\n    }\n\n    function isRegistered(address adAddress) public view returns (bool registered) {\n        return airdroplist[keccak256(adAddress)];\n    }\n}",
  "sourcePath": "/Users/willpark/Desktop/hackathon/nabieffect/nabi-hack/contracts/HoneyTokenAirdrop.sol",
  "compiler": {
    "name": "solc",
    "version": "0.4.24+commit.e67f0147.Emscripten.clang"
  },
  "schemaVersion": "2.0.1",
  "updatedAt": "2018-08-10T16:13:55.365Z"
}